{
  "_format": "hh3-artifact-1",
  "contractName": "NfgAuction",
  "sourceName": "contracts/NfgAuction.sol",
  "abi": [
    {
      "inputs": [
        {
          "internalType": "address",
          "name": "target",
          "type": "address"
        }
      ],
      "name": "AddressEmptyCode",
      "type": "error"
    },
    {
      "inputs": [
        {
          "internalType": "address",
          "name": "implementation",
          "type": "address"
        }
      ],
      "name": "ERC1967InvalidImplementation",
      "type": "error"
    },
    {
      "inputs": [],
      "name": "ERC1967NonPayable",
      "type": "error"
    },
    {
      "inputs": [],
      "name": "FailedCall",
      "type": "error"
    },
    {
      "inputs": [],
      "name": "InvalidInitialization",
      "type": "error"
    },
    {
      "inputs": [],
      "name": "InvalidPrice",
      "type": "error"
    },
    {
      "inputs": [],
      "name": "NotInitializing",
      "type": "error"
    },
    {
      "inputs": [],
      "name": "NotOwner",
      "type": "error"
    },
    {
      "inputs": [],
      "name": "PriceFeedNotSet",
      "type": "error"
    },
    {
      "inputs": [],
      "name": "UUPSUnauthorizedCallContext",
      "type": "error"
    },
    {
      "inputs": [
        {
          "internalType": "bytes32",
          "name": "slot",
          "type": "bytes32"
        }
      ],
      "name": "UUPSUnsupportedProxiableUUID",
      "type": "error"
    },
    {
      "anonymous": false,
      "inputs": [
        {
          "indexed": false,
          "internalType": "uint64",
          "name": "version",
          "type": "uint64"
        }
      ],
      "name": "Initialized",
      "type": "event"
    },
    {
      "anonymous": false,
      "inputs": [
        {
          "indexed": true,
          "internalType": "address",
          "name": "implementation",
          "type": "address"
        }
      ],
      "name": "Upgraded",
      "type": "event"
    },
    {
      "inputs": [],
      "name": "UPGRADE_INTERFACE_VERSION",
      "outputs": [
        {
          "internalType": "string",
          "name": "",
          "type": "string"
        }
      ],
      "stateMutability": "view",
      "type": "function"
    },
    {
      "inputs": [
        {
          "internalType": "uint256",
          "name": "auctionId",
          "type": "uint256"
        },
        {
          "internalType": "uint256",
          "name": "amount",
          "type": "uint256"
        },
        {
          "internalType": "address",
          "name": "token",
          "type": "address"
        }
      ],
      "name": "bid",
      "outputs": [],
      "stateMutability": "payable",
      "type": "function"
    },
    {
      "inputs": [
        {
          "internalType": "address",
          "name": "nft",
          "type": "address"
        },
        {
          "internalType": "uint256",
          "name": "tokenId",
          "type": "uint256"
        },
        {
          "internalType": "uint256",
          "name": "startingPrice",
          "type": "uint256"
        },
        {
          "internalType": "uint256",
          "name": "duration",
          "type": "uint256"
        }
      ],
      "name": "createAuction",
      "outputs": [],
      "stateMutability": "nonpayable",
      "type": "function"
    },
    {
      "inputs": [
        {
          "internalType": "uint256",
          "name": "auctionId",
          "type": "uint256"
        }
      ],
      "name": "endAuction",
      "outputs": [],
      "stateMutability": "nonpayable",
      "type": "function"
    },
    {
      "inputs": [
        {
          "internalType": "address",
          "name": "token",
          "type": "address"
        }
      ],
      "name": "getChainlinkTokenPrice",
      "outputs": [
        {
          "internalType": "uint256",
          "name": "",
          "type": "uint256"
        }
      ],
      "stateMutability": "view",
      "type": "function"
    },
    {
      "inputs": [],
      "name": "initialize",
      "outputs": [],
      "stateMutability": "nonpayable",
      "type": "function"
    },
    {
      "inputs": [],
      "name": "proxiableUUID",
      "outputs": [
        {
          "internalType": "bytes32",
          "name": "",
          "type": "bytes32"
        }
      ],
      "stateMutability": "view",
      "type": "function"
    },
    {
      "inputs": [
        {
          "internalType": "address",
          "name": "token",
          "type": "address"
        },
        {
          "internalType": "address",
          "name": "feed",
          "type": "address"
        }
      ],
      "name": "setPriceFeed",
      "outputs": [],
      "stateMutability": "nonpayable",
      "type": "function"
    },
    {
      "inputs": [
        {
          "internalType": "address",
          "name": "newImplementation",
          "type": "address"
        },
        {
          "internalType": "bytes",
          "name": "data",
          "type": "bytes"
        }
      ],
      "name": "upgradeToAndCall",
      "outputs": [],
      "stateMutability": "payable",
      "type": "function"
    }
  ],
  "bytecode": "0x60a06040523073ffffffffffffffffffffffffffffffffffffffff1660809073ffffffffffffffffffffffffffffffffffffffff168152503480156041575f5ffd5b506080516124546100685f395f81816112470152818161129c015261144e01526124545ff3fe608060405260043610610085575f3560e01c8063742f0a9011610058578063742f0a901461013357806376e112861461014f5780638129fc1c14610177578063ad3cb1cc1461018d578063b9a2de3a146101b757610085565b8063403bddb8146100895780634f1ef286146100c557806352d1902d146100e157806361beb1d71461010b575b5f5ffd5b348015610094575f5ffd5b506100af60048036038101906100aa9190611881565b6101df565b6040516100bc91906118c4565b60405180910390f35b6100df60048036038101906100da9190611a19565b610360565b005b3480156100ec575f5ffd5b506100f561037f565b6040516101029190611a8b565b60405180910390f35b348015610116575f5ffd5b50610131600480360381019061012c9190611ace565b6103b0565b005b61014d60048036038101906101489190611b32565b6107c6565b005b34801561015a575f5ffd5b5061017560048036038101906101709190611b82565b610c19565b005b348015610182575f5ffd5b5061018b610d27565b005b348015610198575f5ffd5b506101a1610ee5565b6040516101ae9190611c20565b60405180910390f35b3480156101c2575f5ffd5b506101dd60048036038101906101d89190611c40565b610f1e565b005b5f5f60025f8473ffffffffffffffffffffffffffffffffffffffff1673ffffffffffffffffffffffffffffffffffffffff1681526020019081526020015f205f9054906101000a900473ffffffffffffffffffffffffffffffffffffffff1690505f73ffffffffffffffffffffffffffffffffffffffff168173ffffffffffffffffffffffffffffffffffffffff16036102a5576040517f7e68a04500000000000000000000000000000000000000000000000000000000815260040160405180910390fd5b5f8190505f8173ffffffffffffffffffffffffffffffffffffffff1663feaf968c6040518163ffffffff1660e01b815260040160a060405180830381865afa1580156102f3573d5f5f3e3d5ffd5b505050506040513d601f19601f820116820180604052508101906103179190611cf1565b5050509150505f8113610355576040517ebfc92100000000000000000000000000000000000000000000000000000000815260040160405180910390fd5b809350505050919050565b610368611245565b6103718261132b565b61037b828261132e565b5050565b5f61038861144c565b7f360894a13ba1a3210667c828492db98dca3e2076cc3735a920a3ca505d382bbc5f1b905090565b3373ffffffffffffffffffffffffffffffffffffffff168473ffffffffffffffffffffffffffffffffffffffff16636352211e856040518263ffffffff1660e01b815260040161040091906118c4565b602060405180830381865afa15801561041b573d5f5f3e3d5ffd5b505050506040513d601f19601f8201168201806040525081019061043f9190611d7c565b73ffffffffffffffffffffffffffffffffffffffff161461048c576040517f30cd747100000000000000000000000000000000000000000000000000000000815260040160405180910390fd5b5f82116104ce576040517f08c379a00000000000000000000000000000000000000000000000000000000081526004016104c590611e17565b60405180910390fd5b5f8111610510576040517f08c379a000000000000000000000000000000000000000000000000000000000815260040161050790611e7f565b60405180910390fd5b8373ffffffffffffffffffffffffffffffffffffffff166323b872dd3330866040518463ffffffff1660e01b815260040161054d93929190611eac565b5f604051808303815f87803b158015610564575f5ffd5b505af1158015610576573d5f5f3e3d5ffd5b505050506040518061016001604052808573ffffffffffffffffffffffffffffffffffffffff1681526020018481526020013373ffffffffffffffffffffffffffffffffffffffff1681526020018381526020014281526020018281526020015f151581526020015f73ffffffffffffffffffffffffffffffffffffffff1681526020015f81526020015f73ffffffffffffffffffffffffffffffffffffffff1681526020015f81525060035f5f5481526020019081526020015f205f820151815f015f6101000a81548173ffffffffffffffffffffffffffffffffffffffff021916908373ffffffffffffffffffffffffffffffffffffffff160217905550602082015181600101556040820151816002015f6101000a81548173ffffffffffffffffffffffffffffffffffffffff021916908373ffffffffffffffffffffffffffffffffffffffff160217905550606082015181600301556080820151816004015560a0820151816005015560c0820151816006015f6101000a81548160ff02191690831515021790555060e08201518160060160016101000a81548173ffffffffffffffffffffffffffffffffffffffff021916908373ffffffffffffffffffffffffffffffffffffffff1602179055506101008201518160070155610120820151816008015f6101000a81548173ffffffffffffffffffffffffffffffffffffffff021916908373ffffffffffffffffffffffffffffffffffffffff16021790555061014082015181600901559050505f5f8154809291906107bb90611f0e565b919050555050505050565b5f60035f8581526020019081526020015f209050806006015f9054906101000a900460ff1615801561080a5750806005015481600401546108079190611f55565b42105b610849576040517f08c379a000000000000000000000000000000000000000000000000000000000815260040161084090611fd2565b60405180910390fd5b8060030154831161088f576040517f08c379a00000000000000000000000000000000000000000000000000000000081526004016108869061203a565b60405180910390fd5b5f8390505f73ffffffffffffffffffffffffffffffffffffffff168373ffffffffffffffffffffffffffffffffffffffff16036108ca573490505b5f6108d4846101df565b90505f81836108e39190612058565b90508360090154811161092b576040517f08c379a00000000000000000000000000000000000000000000000000000000081526004016109229061203a565b60405180910390fd5b5f73ffffffffffffffffffffffffffffffffffffffff168460060160019054906101000a900473ffffffffffffffffffffffffffffffffffffffff1673ffffffffffffffffffffffffffffffffffffffff1614610b79575f73ffffffffffffffffffffffffffffffffffffffff16846008015f9054906101000a900473ffffffffffffffffffffffffffffffffffffffff1673ffffffffffffffffffffffffffffffffffffffff1603610aae575f8460060160019054906101000a900473ffffffffffffffffffffffffffffffffffffffff1673ffffffffffffffffffffffffffffffffffffffff168560070154604051610a25906120c6565b5f6040518083038185875af1925050503d805f8114610a5f576040519150601f19603f3d011682016040523d82523d5f602084013e610a64565b606091505b5050905080610aa8576040517f08c379a0000000000000000000000000000000000000000000000000000000008152600401610a9f90612124565b60405180910390fd5b50610b78565b836008015f9054906101000a900473ffffffffffffffffffffffffffffffffffffffff1673ffffffffffffffffffffffffffffffffffffffff166323b872dd308660060160019054906101000a900473ffffffffffffffffffffffffffffffffffffffff1687600701546040518463ffffffff1660e01b8152600401610b3693929190611eac565b6020604051808303815f875af1158015610b52573d5f5f3e3d5ffd5b505050506040513d601f19601f82011682018060405250810190610b769190612177565b505b5b338460060160016101000a81548173ffffffffffffffffffffffffffffffffffffffff021916908373ffffffffffffffffffffffffffffffffffffffff16021790555084846008015f6101000a81548173ffffffffffffffffffffffffffffffffffffffff021916908373ffffffffffffffffffffffffffffffffffffffff16021790555080846009018190555082846007018190555050505050505050565b60015f9054906101000a900473ffffffffffffffffffffffffffffffffffffffff1673ffffffffffffffffffffffffffffffffffffffff163373ffffffffffffffffffffffffffffffffffffffff1614610ca8576040517f08c379a0000000000000000000000000000000000000000000000000000000008152600401610c9f906121ec565b60405180910390fd5b8060025f8473ffffffffffffffffffffffffffffffffffffffff1673ffffffffffffffffffffffffffffffffffffffff1681526020019081526020015f205f6101000a81548173ffffffffffffffffffffffffffffffffffffffff021916908373ffffffffffffffffffffffffffffffffffffffff1602179055505050565b5f610d306114d3565b90505f815f0160089054906101000a900460ff161590505f825f015f9054906101000a900467ffffffffffffffff1690505f5f8267ffffffffffffffff16148015610d785750825b90505f60018367ffffffffffffffff16148015610dab57505f3073ffffffffffffffffffffffffffffffffffffffff163b145b905081158015610db9575080155b15610df0576040517ff92ee8a900000000000000000000000000000000000000000000000000000000815260040160405180910390fd5b6001855f015f6101000a81548167ffffffffffffffff021916908367ffffffffffffffff1602179055508315610e3d576001855f0160086101000a81548160ff0219169083151502179055505b60015f819055503360015f6101000a81548173ffffffffffffffffffffffffffffffffffffffff021916908373ffffffffffffffffffffffffffffffffffffffff1602179055508315610ede575f855f0160086101000a81548160ff0219169083151502179055507fc7f505b2f371ae2175ee4913f4499e1f2633a7b5936321eed1cdaeb6115181d26001604051610ed5919061225f565b60405180910390a15b5050505050565b6040518060400160405280600581526020017f352e302e3000000000000000000000000000000000000000000000000000000081525081565b5f60035f8381526020019081526020015f209050806006015f9054906101000a900460ff1615610f83576040517f08c379a0000000000000000000000000000000000000000000000000000000008152600401610f7a90611fd2565b60405180910390fd5b5f73ffffffffffffffffffffffffffffffffffffffff168160060160019054906101000a900473ffffffffffffffffffffffffffffffffffffffff1673ffffffffffffffffffffffffffffffffffffffff1603611015576040517f08c379a000000000000000000000000000000000000000000000000000000000815260040161100c906122c2565b60405180910390fd5b5f81600901541161105b576040517f08c379a00000000000000000000000000000000000000000000000000000000081526004016110529061232a565b60405180910390fd5b5f8160070154116110a1576040517f08c379a000000000000000000000000000000000000000000000000000000000815260040161109890612392565b60405180910390fd5b6001816006015f6101000a81548160ff0219169083151502179055505f816002015f9054906101000a900473ffffffffffffffffffffffffffffffffffffffff1673ffffffffffffffffffffffffffffffffffffffff168260070154604051611109906120c6565b5f6040518083038185875af1925050503d805f8114611143576040519150601f19603f3d011682016040523d82523d5f602084013e611148565b606091505b505090508061118c576040517f08c379a000000000000000000000000000000000000000000000000000000000815260040161118390612124565b60405180910390fd5b815f015f9054906101000a900473ffffffffffffffffffffffffffffffffffffffff1673ffffffffffffffffffffffffffffffffffffffff166323b872dd308460060160019054906101000a900473ffffffffffffffffffffffffffffffffffffffff1685600101546040518463ffffffff1660e01b815260040161121393929190611eac565b5f604051808303815f87803b15801561122a575f5ffd5b505af115801561123c573d5f5f3e3d5ffd5b50505050505050565b7f000000000000000000000000000000000000000000000000000000000000000073ffffffffffffffffffffffffffffffffffffffff163073ffffffffffffffffffffffffffffffffffffffff1614806112f257507f000000000000000000000000000000000000000000000000000000000000000073ffffffffffffffffffffffffffffffffffffffff166112d96114e6565b73ffffffffffffffffffffffffffffffffffffffff1614155b15611329576040517fe07c8dba00000000000000000000000000000000000000000000000000000000815260040160405180910390fd5b565b50565b8173ffffffffffffffffffffffffffffffffffffffff166352d1902d6040518163ffffffff1660e01b8152600401602060405180830381865afa92505050801561139657506040513d601f19601f8201168201806040525081019061139391906123da565b60015b6113d757816040517f4c9c8ce30000000000000000000000000000000000000000000000000000000081526004016113ce9190612405565b60405180910390fd5b7f360894a13ba1a3210667c828492db98dca3e2076cc3735a920a3ca505d382bbc5f1b811461143d57806040517faa1d49a40000000000000000000000000000000000000000000000000000000081526004016114349190611a8b565b60405180910390fd5b6114478383611539565b505050565b7f000000000000000000000000000000000000000000000000000000000000000073ffffffffffffffffffffffffffffffffffffffff163073ffffffffffffffffffffffffffffffffffffffff16146114d1576040517fe07c8dba00000000000000000000000000000000000000000000000000000000815260040160405180910390fd5b565b5f5f6114dd6115ab565b90508091505090565b5f6115127f360894a13ba1a3210667c828492db98dca3e2076cc3735a920a3ca505d382bbc5f1b6115d4565b5f015f9054906101000a900473ffffffffffffffffffffffffffffffffffffffff16905090565b611542826115dd565b8173ffffffffffffffffffffffffffffffffffffffff167fbc7cd75a20ee27fd9adebab32041f755214dbc6bffa90cc0225b39da2e5c2d3b60405160405180910390a25f8151111561159e5761159882826116a6565b506115a7565b6115a6611797565b5b5050565b5f7ff0c57e16840df040f15088dc2f81fe391c3923bec73e23a9662efc9c229c6a005f1b905090565b5f819050919050565b5f8173ffffffffffffffffffffffffffffffffffffffff163b0361163857806040517f4c9c8ce300000000000000000000000000000000000000000000000000000000815260040161162f9190612405565b60405180910390fd5b806116647f360894a13ba1a3210667c828492db98dca3e2076cc3735a920a3ca505d382bbc5f1b6115d4565b5f015f6101000a81548173ffffffffffffffffffffffffffffffffffffffff021916908373ffffffffffffffffffffffffffffffffffffffff16021790555050565b60605f6116b384846117d3565b90508080156116e957505f6116c66117e7565b11806116e857505f8473ffffffffffffffffffffffffffffffffffffffff163b115b5b156116fe576116f66117ee565b915050611791565b801561174157836040517f9996b3150000000000000000000000000000000000000000000000000000000081526004016117389190612405565b60405180910390fd5b5f61174a6117e7565b111561175d5761175861180b565b61178f565b6040517fd6bda27500000000000000000000000000000000000000000000000000000000815260040160405180910390fd5b505b92915050565b5f3411156117d1576040517fb398979f00000000000000000000000000000000000000000000000000000000815260040160405180910390fd5b565b5f5f5f835160208501865af4905092915050565b5f3d905090565b606060405190503d81523d5f602083013e3d602001810160405290565b6040513d5f823e3d81fd5b5f604051905090565b5f5ffd5b5f5ffd5b5f73ffffffffffffffffffffffffffffffffffffffff82169050919050565b5f61185082611827565b9050919050565b61186081611846565b811461186a575f5ffd5b50565b5f8135905061187b81611857565b92915050565b5f602082840312156118965761189561181f565b5b5f6118a38482850161186d565b91505092915050565b5f819050919050565b6118be816118ac565b82525050565b5f6020820190506118d75f8301846118b5565b92915050565b5f5ffd5b5f5ffd5b5f601f19601f8301169050919050565b7f4e487b71000000000000000000000000000000000000000000000000000000005f52604160045260245ffd5b61192b826118e5565b810181811067ffffffffffffffff8211171561194a576119496118f5565b5b80604052505050565b5f61195c611816565b90506119688282611922565b919050565b5f67ffffffffffffffff821115611987576119866118f5565b5b611990826118e5565b9050602081019050919050565b828183375f83830152505050565b5f6119bd6119b88461196d565b611953565b9050828152602081018484840111156119d9576119d86118e1565b5b6119e484828561199d565b509392505050565b5f82601f830112611a00576119ff6118dd565b5b8135611a108482602086016119ab565b91505092915050565b5f5f60408385031215611a2f57611a2e61181f565b5b5f611a3c8582860161186d565b925050602083013567ffffffffffffffff811115611a5d57611a5c611823565b5b611a69858286016119ec565b9150509250929050565b5f819050919050565b611a8581611a73565b82525050565b5f602082019050611a9e5f830184611a7c565b92915050565b611aad816118ac565b8114611ab7575f5ffd5b50565b5f81359050611ac881611aa4565b92915050565b5f5f5f5f60808587031215611ae657611ae561181f565b5b5f611af38782880161186d565b9450506020611b0487828801611aba565b9350506040611b1587828801611aba565b9250506060611b2687828801611aba565b91505092959194509250565b5f5f5f60608486031215611b4957611b4861181f565b5b5f611b5686828701611aba565b9350506020611b6786828701611aba565b9250506040611b788682870161186d565b9150509250925092565b5f5f60408385031215611b9857611b9761181f565b5b5f611ba58582860161186d565b9250506020611bb68582860161186d565b9150509250929050565b5f81519050919050565b5f82825260208201905092915050565b8281835e5f83830152505050565b5f611bf282611bc0565b611bfc8185611bca565b9350611c0c818560208601611bda565b611c15816118e5565b840191505092915050565b5f6020820190508181035f830152611c388184611be8565b905092915050565b5f60208284031215611c5557611c5461181f565b5b5f611c6284828501611aba565b91505092915050565b5f69ffffffffffffffffffff82169050919050565b611c8981611c6b565b8114611c93575f5ffd5b50565b5f81519050611ca481611c80565b92915050565b5f819050919050565b611cbc81611caa565b8114611cc6575f5ffd5b50565b5f81519050611cd781611cb3565b92915050565b5f81519050611ceb81611aa4565b92915050565b5f5f5f5f5f60a08688031215611d0a57611d0961181f565b5b5f611d1788828901611c96565b9550506020611d2888828901611cc9565b9450506040611d3988828901611cdd565b9350506060611d4a88828901611cdd565b9250506080611d5b88828901611c96565b9150509295509295909350565b5f81519050611d7681611857565b92915050565b5f60208284031215611d9157611d9061181f565b5b5f611d9e84828501611d68565b91505092915050565b7f5374617274696e67207072696365206d757374206265206772656174657220745f8201527f68616e2030000000000000000000000000000000000000000000000000000000602082015250565b5f611e01602583611bca565b9150611e0c82611da7565b604082019050919050565b5f6020820190508181035f830152611e2e81611df5565b9050919050565b7f4475726174696f6e206d7573742062652067726561746572207468616e2030005f82015250565b5f611e69601f83611bca565b9150611e7482611e35565b602082019050919050565b5f6020820190508181035f830152611e9681611e5d565b9050919050565b611ea681611846565b82525050565b5f606082019050611ebf5f830186611e9d565b611ecc6020830185611e9d565b611ed960408301846118b5565b949350505050565b7f4e487b71000000000000000000000000000000000000000000000000000000005f52601160045260245ffd5b5f611f18826118ac565b91507fffffffffffffffffffffffffffffffffffffffffffffffffffffffffffffffff8203611f4a57611f49611ee1565b5b600182019050919050565b5f611f5f826118ac565b9150611f6a836118ac565b9250828201905080821115611f8257611f81611ee1565b5b92915050565b7f61756374696f6e20616c726561647920656e64656400000000000000000000005f82015250565b5f611fbc601583611bca565b9150611fc782611f88565b602082019050919050565b5f6020820190508181035f830152611fe981611fb0565b9050919050565b7f6e6f7420656e6f7567682062696420616d6f756e7400000000000000000000005f82015250565b5f612024601583611bca565b915061202f82611ff0565b602082019050919050565b5f6020820190508181035f83015261205181612018565b9050919050565b5f612062826118ac565b915061206d836118ac565b925082820261207b816118ac565b9150828204841483151761209257612091611ee1565b5b5092915050565b5f81905092915050565b50565b5f6120b15f83612099565b91506120bc826120a3565b5f82019050919050565b5f6120d0826120a6565b9150819050919050565b7f455448207472616e73666572206661696c6564000000000000000000000000005f82015250565b5f61210e601383611bca565b9150612119826120da565b602082019050919050565b5f6020820190508181035f83015261213b81612102565b9050919050565b5f8115159050919050565b61215681612142565b8114612160575f5ffd5b50565b5f815190506121718161214d565b92915050565b5f6020828403121561218c5761218b61181f565b5b5f61219984828501612163565b91505092915050565b7f4f6e6c792061646d696e000000000000000000000000000000000000000000005f82015250565b5f6121d6600a83611bca565b91506121e1826121a2565b602082019050919050565b5f6020820190508181035f830152612203816121ca565b9050919050565b5f819050919050565b5f67ffffffffffffffff82169050919050565b5f819050919050565b5f61224961224461223f8461220a565b612226565b612213565b9050919050565b6122598161222f565b82525050565b5f6020820190506122725f830184612250565b92915050565b7f6e6f2068696768657374206269646465720000000000000000000000000000005f82015250565b5f6122ac601183611bca565b91506122b782612278565b602082019050919050565b5f6020820190508181035f8301526122d9816122a0565b9050919050565b7f6e6f2068696768657374206269642075736400000000000000000000000000005f82015250565b5f612314601283611bca565b915061231f826122e0565b602082019050919050565b5f6020820190508181035f83015261234181612308565b9050919050565b7f6e6f20686967686573742062696420746f6b656e20636f756e740000000000005f82015250565b5f61237c601a83611bca565b915061238782612348565b602082019050919050565b5f6020820190508181035f8301526123a981612370565b9050919050565b6123b981611a73565b81146123c3575f5ffd5b50565b5f815190506123d4816123b0565b92915050565b5f602082840312156123ef576123ee61181f565b5b5f6123fc848285016123c6565b91505092915050565b5f6020820190506124185f830184611e9d565b9291505056fea26469706673582212206bad786d6ea8629dde16430661e83a836f79bdf2530511174b3b4b0231ce663964736f6c634300081c0033",
  "linkReferences": {},
  "deployedLinkReferences": {},
  "immutableReferences": {
    "862": [
      {
        "length": 32,
        "start": 4679
      },
      {
        "length": 32,
        "start": 4764
      },
      {
        "length": 32,
        "start": 5198
      }
    ]
  },
  "inputSourceName": "project/contracts/NfgAuction.sol",
  "buildInfoId": "solc-0_8_28-7fb09cad4c3dbed4438a495afa62bae95a93b08d"
}