{
  "_format": "hh3-artifact-1",
  "contractName": "NftAuction2",
  "sourceName": "contracts/NftAuction2.sol",
  "abi": [
    {
      "inputs": [
        {
          "internalType": "address",
          "name": "target",
          "type": "address"
        }
      ],
      "name": "AddressEmptyCode",
      "type": "error"
    },
    {
      "inputs": [
        {
          "internalType": "address",
          "name": "implementation",
          "type": "address"
        }
      ],
      "name": "ERC1967InvalidImplementation",
      "type": "error"
    },
    {
      "inputs": [],
      "name": "ERC1967NonPayable",
      "type": "error"
    },
    {
      "inputs": [],
      "name": "FailedCall",
      "type": "error"
    },
    {
      "inputs": [],
      "name": "InvalidInitialization",
      "type": "error"
    },
    {
      "inputs": [],
      "name": "InvalidPrice",
      "type": "error"
    },
    {
      "inputs": [],
      "name": "NotInitializing",
      "type": "error"
    },
    {
      "inputs": [],
      "name": "NotOwner",
      "type": "error"
    },
    {
      "inputs": [],
      "name": "PriceFeedNotSet",
      "type": "error"
    },
    {
      "inputs": [],
      "name": "UUPSUnauthorizedCallContext",
      "type": "error"
    },
    {
      "inputs": [
        {
          "internalType": "bytes32",
          "name": "slot",
          "type": "bytes32"
        }
      ],
      "name": "UUPSUnsupportedProxiableUUID",
      "type": "error"
    },
    {
      "anonymous": false,
      "inputs": [
        {
          "indexed": false,
          "internalType": "uint64",
          "name": "version",
          "type": "uint64"
        }
      ],
      "name": "Initialized",
      "type": "event"
    },
    {
      "anonymous": false,
      "inputs": [
        {
          "indexed": true,
          "internalType": "address",
          "name": "implementation",
          "type": "address"
        }
      ],
      "name": "Upgraded",
      "type": "event"
    },
    {
      "inputs": [],
      "name": "UPGRADE_INTERFACE_VERSION",
      "outputs": [
        {
          "internalType": "string",
          "name": "",
          "type": "string"
        }
      ],
      "stateMutability": "view",
      "type": "function"
    },
    {
      "inputs": [
        {
          "internalType": "uint256",
          "name": "auctionId",
          "type": "uint256"
        },
        {
          "internalType": "uint256",
          "name": "amount",
          "type": "uint256"
        },
        {
          "internalType": "address",
          "name": "token",
          "type": "address"
        }
      ],
      "name": "bid",
      "outputs": [],
      "stateMutability": "payable",
      "type": "function"
    },
    {
      "inputs": [
        {
          "internalType": "address",
          "name": "nft",
          "type": "address"
        },
        {
          "internalType": "uint256",
          "name": "tokenId",
          "type": "uint256"
        },
        {
          "internalType": "uint256",
          "name": "startingPrice",
          "type": "uint256"
        },
        {
          "internalType": "uint256",
          "name": "duration",
          "type": "uint256"
        }
      ],
      "name": "createAuction",
      "outputs": [],
      "stateMutability": "nonpayable",
      "type": "function"
    },
    {
      "inputs": [
        {
          "internalType": "uint256",
          "name": "auctionId",
          "type": "uint256"
        }
      ],
      "name": "endAuction",
      "outputs": [],
      "stateMutability": "nonpayable",
      "type": "function"
    },
    {
      "inputs": [
        {
          "internalType": "address",
          "name": "token",
          "type": "address"
        }
      ],
      "name": "getChainlinkTokenPrice",
      "outputs": [
        {
          "internalType": "uint256",
          "name": "",
          "type": "uint256"
        }
      ],
      "stateMutability": "view",
      "type": "function"
    },
    {
      "inputs": [],
      "name": "initialize",
      "outputs": [],
      "stateMutability": "nonpayable",
      "type": "function"
    },
    {
      "inputs": [],
      "name": "proxiableUUID",
      "outputs": [
        {
          "internalType": "bytes32",
          "name": "",
          "type": "bytes32"
        }
      ],
      "stateMutability": "view",
      "type": "function"
    },
    {
      "inputs": [
        {
          "internalType": "address",
          "name": "token",
          "type": "address"
        },
        {
          "internalType": "address",
          "name": "feed",
          "type": "address"
        }
      ],
      "name": "setPriceFeed",
      "outputs": [],
      "stateMutability": "nonpayable",
      "type": "function"
    },
    {
      "inputs": [],
      "name": "tt",
      "outputs": [
        {
          "internalType": "string",
          "name": "",
          "type": "string"
        }
      ],
      "stateMutability": "pure",
      "type": "function"
    },
    {
      "inputs": [
        {
          "internalType": "address",
          "name": "newImplementation",
          "type": "address"
        },
        {
          "internalType": "bytes",
          "name": "data",
          "type": "bytes"
        }
      ],
      "name": "upgradeToAndCall",
      "outputs": [],
      "stateMutability": "payable",
      "type": "function"
    }
  ],
  "bytecode": "0x60a0604052306080523480156012575f5ffd5b5060805161137b6100395f395f8181610c9101528181610cba0152610dfb015261137b5ff3fe60806040526004361061008f575f3560e01c8063742f0a9011610057578063742f0a901461015f57806376e11286146101725780638129fc1c14610191578063ad3cb1cc146101a5578063b9a2de3a146101d5575f5ffd5b80631e36169e14610093578063403bddb8146100ea5780634f1ef2861461011757806352d1902d1461012c57806361beb1d714610140575b5f5ffd5b34801561009e575f5ffd5b5060408051808201909152601781527f7468697320697320206e66742061756374696f6e20763200000000000000000060208201525b6040516100e19190611011565b60405180910390f35b3480156100f5575f5ffd5b5061010961010436600461105a565b6101f4565b6040519081526020016100e1565b61012a610125366004611090565b6102c0565b005b348015610137575f5ffd5b506101096102d6565b34801561014b575f5ffd5b5061012a61015a366004611156565b6102f1565b61012a61016d36600461118e565b6105bc565b34801561017d575f5ffd5b5061012a61018c3660046111c4565b6108a0565b34801561019c575f5ffd5b5061012a610914565b3480156101b0575f5ffd5b506100d4604051806040016040528060058152602001640352e302e360dc1b81525081565b3480156101e0575f5ffd5b5061012a6101ef3660046111fb565b610a19565b6001600160a01b038082165f908152600260205260408120549091168061022e57604051637e68a04560e01b815260040160405180910390fd5b5f8190505f816001600160a01b031663feaf968c6040518163ffffffff1660e01b815260040160a060405180830381865afa15801561026f573d5f5f3e3d5ffd5b505050506040513d601f19601f820116820180604052508101906102939190611230565b5050509150505f81136102b85760405162bfc92160e01b815260040160405180910390fd5b949350505050565b6102c8610c86565b6102d28282610d2f565b5050565b5f6102df610df0565b505f5160206113265f395f51905f5290565b6040516331a9108f60e11b81526004810184905233906001600160a01b03861690636352211e90602401602060405180830381865afa158015610336573d5f5f3e3d5ffd5b505050506040513d601f19601f8201168201806040525081019061035a919061127e565b6001600160a01b031614610381576040516330cd747160e01b815260040160405180910390fd5b5f82116103e35760405162461bcd60e51b815260206004820152602560248201527f5374617274696e67207072696365206d75737420626520677265617465722074604482015264068616e20360dc1b60648201526084015b60405180910390fd5b5f81116104325760405162461bcd60e51b815260206004820152601f60248201527f4475726174696f6e206d7573742062652067726561746572207468616e20300060448201526064016103da565b6040516323b872dd60e01b8152336004820152306024820152604481018490526001600160a01b038516906323b872dd906064015f604051808303815f87803b15801561047d575f5ffd5b505af115801561048f573d5f5f3e3d5ffd5b505060408051610160810182526001600160a01b038089168252602080830189815233848601908152606085018a8152426080870190815260a087018b81525f60c0890181815260e08a01828152610100808c018481526101208d018581526101408e018681528654875260039c8d90529e86209d518e54908e166001600160a01b0319918216178f559a5160018f0155985160028e018054918e16918c169190911790559651998c0199909955935160048b0155915160058a0155905160068901805493518916909702610100600160a81b0319911515919091166001600160a81b0319909316929092179190911790945551600786015551600885018054919094169116179091559151600990910155805492509050806105b1836112ad565b919050555050505050565b5f838152600360205260409020600681015460ff161580156105f05750806005015481600401546105ed91906112c5565b42105b6106345760405162461bcd60e51b8152602060048201526015602482015274185d58dd1a5bdb88185b1c9958591e48195b991959605a1b60448201526064016103da565b8060030154831161067f5760405162461bcd60e51b81526020600482015260156024820152741b9bdd08195b9bdd59da08189a5908185b5bdd5b9d605a1b60448201526064016103da565b826001600160a01b0383166106915750345b5f61069b846101f4565b90505f6106a882846112d8565b9050836009015481116106f55760405162461bcd60e51b81526020600482015260156024820152741b9bdd08195b9bdd59da08189a5908185b5bdd5b9d605a1b60448201526064016103da565b600684015461010090046001600160a01b0316156108535760088401546001600160a01b03166107c657600684015460078501546040515f9261010090046001600160a01b031691908381818185875af1925050503d805f8114610774576040519150601f19603f3d011682016040523d82523d5f602084013e610779565b606091505b50509050806107c05760405162461bcd60e51b8152602060048201526013602482015272115512081d1c985b9cd9995c8819985a5b1959606a1b60448201526064016103da565b50610853565b6008840154600685015460078601546040516323b872dd60e01b81523060048201526001600160a01b036101009093048316602482015260448101919091529116906323b872dd906064016020604051808303815f875af115801561082d573d5f5f3e3d5ffd5b505050506040513d601f19601f8201168201806040525081019061085191906112ef565b505b600684018054610100600160a81b03191633610100021790556008840180546001600160a01b0319166001600160a01b039690961695909517909455506009820192909255600701555050565b6001546001600160a01b031633146108e75760405162461bcd60e51b815260206004820152600a60248201526927b7363c9030b236b4b760b11b60448201526064016103da565b6001600160a01b039182165f90815260026020526040902080546001600160a01b03191691909216179055565b5f61091d610e39565b805490915060ff600160401b820416159067ffffffffffffffff165f811580156109445750825b90505f8267ffffffffffffffff1660011480156109605750303b155b90508115801561096e575080155b1561098c5760405163f92ee8a960e01b815260040160405180910390fd5b845467ffffffffffffffff1916600117855583156109b657845460ff60401b1916600160401b1785555b60015f81905580546001600160a01b031916331790558315610a1257845460ff60401b19168555604051600181527fc7f505b2f371ae2175ee4913f4499e1f2633a7b5936321eed1cdaeb6115181d29060200160405180910390a15b5050505050565b5f818152600360205260409020600681015460ff1615610a735760405162461bcd60e51b8152602060048201526015602482015274185d58dd1a5bdb88185b1c9958591e48195b991959605a1b60448201526064016103da565b600681015461010090046001600160a01b0316610ac65760405162461bcd60e51b81526020600482015260116024820152703737903434b3b432b9ba103134b23232b960791b60448201526064016103da565b5f816009015411610b0e5760405162461bcd60e51b81526020600482015260126024820152711b9bc81a1a59da195cdd08189a59081d5cd960721b60448201526064016103da565b5f816007015411610b615760405162461bcd60e51b815260206004820152601a60248201527f6e6f20686967686573742062696420746f6b656e20636f756e7400000000000060448201526064016103da565b60068101805460ff19166001179055600281015460078201546040515f926001600160a01b031691908381818185875af1925050503d805f8114610bc0576040519150601f19603f3d011682016040523d82523d5f602084013e610bc5565b606091505b5050905080610c0c5760405162461bcd60e51b8152602060048201526013602482015272115512081d1c985b9cd9995c8819985a5b1959606a1b60448201526064016103da565b8154600683015460018401546040516323b872dd60e01b81523060048201526001600160a01b036101009093048316602482015260448101919091529116906323b872dd906064015f604051808303815f87803b158015610c6b575f5ffd5b505af1158015610c7d573d5f5f3e3d5ffd5b50505050505050565b306001600160a01b037f0000000000000000000000000000000000000000000000000000000000000000161480610d0c57507f00000000000000000000000000000000000000000000000000000000000000006001600160a01b0316610d005f5160206113265f395f51905f52546001600160a01b031690565b6001600160a01b031614155b15610d2a5760405163703e46dd60e11b815260040160405180910390fd5b565b50565b816001600160a01b03166352d1902d6040518163ffffffff1660e01b8152600401602060405180830381865afa925050508015610d89575060408051601f3d908101601f19168201909252610d869181019061130e565b60015b610db157604051634c9c8ce360e01b81526001600160a01b03831660048201526024016103da565b5f5160206113265f395f51905f528114610de157604051632a87526960e21b8152600481018290526024016103da565b610deb8383610e63565b505050565b306001600160a01b037f00000000000000000000000000000000000000000000000000000000000000001614610d2a5760405163703e46dd60e11b815260040160405180910390fd5b5f807ff0c57e16840df040f15088dc2f81fe391c3923bec73e23a9662efc9c229c6a005b92915050565b610e6c82610eb8565b6040516001600160a01b038316907fbc7cd75a20ee27fd9adebab32041f755214dbc6bffa90cc0225b39da2e5c2d3b905f90a2805115610eb057610deb8282610f1b565b6102d2610fbb565b806001600160a01b03163b5f03610eed57604051634c9c8ce360e01b81526001600160a01b03821660048201526024016103da565b5f5160206113265f395f51905f5280546001600160a01b0319166001600160a01b0392909216919091179055565b60605f610f288484610fda565b9050808015610f4957505f3d1180610f4957505f846001600160a01b03163b115b15610f5e57610f56610fed565b915050610e5d565b8015610f8857604051639996b31560e01b81526001600160a01b03851660048201526024016103da565b3d15610f9b57610f96611006565b610fb4565b60405163d6bda27560e01b815260040160405180910390fd5b5092915050565b3415610d2a5760405163b398979f60e01b815260040160405180910390fd5b5f5f5f835160208501865af49392505050565b6040513d81523d5f602083013e3d602001810160405290565b6040513d5f823e3d81fd5b602081525f82518060208401528060208501604085015e5f604082850101526040601f19601f83011684010191505092915050565b6001600160a01b0381168114610d2c575f5ffd5b5f6020828403121561106a575f5ffd5b813561107581611046565b9392505050565b634e487b7160e01b5f52604160045260245ffd5b5f5f604083850312156110a1575f5ffd5b82356110ac81611046565b9150602083013567ffffffffffffffff8111156110c7575f5ffd5b8301601f810185136110d7575f5ffd5b803567ffffffffffffffff8111156110f1576110f161107c565b604051601f8201601f19908116603f0116810167ffffffffffffffff811182821017156111205761112061107c565b604052818152828201602001871015611137575f5ffd5b816020840160208301375f602083830101528093505050509250929050565b5f5f5f5f60808587031215611169575f5ffd5b843561117481611046565b966020860135965060408601359560600135945092505050565b5f5f5f606084860312156111a0575f5ffd5b833592506020840135915060408401356111b981611046565b809150509250925092565b5f5f604083850312156111d5575f5ffd5b82356111e081611046565b915060208301356111f081611046565b809150509250929050565b5f6020828403121561120b575f5ffd5b5035919050565b805169ffffffffffffffffffff8116811461122b575f5ffd5b919050565b5f5f5f5f5f60a08688031215611244575f5ffd5b61124d86611212565b6020870151604088015160608901519297509095509350915061127260808701611212565b90509295509295909350565b5f6020828403121561128e575f5ffd5b815161107581611046565b634e487b7160e01b5f52601160045260245ffd5b5f600182016112be576112be611299565b5060010190565b80820180821115610e5d57610e5d611299565b8082028115828204841417610e5d57610e5d611299565b5f602082840312156112ff575f5ffd5b81518015158114611075575f5ffd5b5f6020828403121561131e575f5ffd5b505191905056fe360894a13ba1a3210667c828492db98dca3e2076cc3735a920a3ca505d382bbca2646970667358221220805f9826071275816f3f7e45494dfffe210065267a77c6f4755542f0a7ea113964736f6c634300081c0033",
  "linkReferences": {},
  "deployedLinkReferences": {},
  "immutableReferences": {
    "626": [
      {
        "length": 32,
        "start": 3217
      },
      {
        "length": 32,
        "start": 3258
      },
      {
        "length": 32,
        "start": 3579
      }
    ]
  },
  "inputSourceName": "project/contracts/NftAuction2.sol",
  "buildInfoId": "solc-0_8_28-39dd4745c4b288b63b1e57aad5d7bcd55e0ef0b9"
}