{
  "_format": "hh3-artifact-1",
  "contractName": "NfgAuction",
  "sourceName": "contracts/NfgAuction.sol",
  "abi": [
    {
      "inputs": [
        {
          "internalType": "address",
          "name": "target",
          "type": "address"
        }
      ],
      "name": "AddressEmptyCode",
      "type": "error"
    },
    {
      "inputs": [
        {
          "internalType": "address",
          "name": "implementation",
          "type": "address"
        }
      ],
      "name": "ERC1967InvalidImplementation",
      "type": "error"
    },
    {
      "inputs": [],
      "name": "ERC1967NonPayable",
      "type": "error"
    },
    {
      "inputs": [],
      "name": "FailedCall",
      "type": "error"
    },
    {
      "inputs": [],
      "name": "InvalidInitialization",
      "type": "error"
    },
    {
      "inputs": [],
      "name": "InvalidPrice",
      "type": "error"
    },
    {
      "inputs": [],
      "name": "NotInitializing",
      "type": "error"
    },
    {
      "inputs": [],
      "name": "NotOwner",
      "type": "error"
    },
    {
      "inputs": [],
      "name": "PriceFeedNotSet",
      "type": "error"
    },
    {
      "inputs": [],
      "name": "UUPSUnauthorizedCallContext",
      "type": "error"
    },
    {
      "inputs": [
        {
          "internalType": "bytes32",
          "name": "slot",
          "type": "bytes32"
        }
      ],
      "name": "UUPSUnsupportedProxiableUUID",
      "type": "error"
    },
    {
      "anonymous": false,
      "inputs": [
        {
          "indexed": false,
          "internalType": "uint64",
          "name": "version",
          "type": "uint64"
        }
      ],
      "name": "Initialized",
      "type": "event"
    },
    {
      "anonymous": false,
      "inputs": [
        {
          "indexed": true,
          "internalType": "address",
          "name": "implementation",
          "type": "address"
        }
      ],
      "name": "Upgraded",
      "type": "event"
    },
    {
      "inputs": [],
      "name": "UPGRADE_INTERFACE_VERSION",
      "outputs": [
        {
          "internalType": "string",
          "name": "",
          "type": "string"
        }
      ],
      "stateMutability": "view",
      "type": "function"
    },
    {
      "inputs": [
        {
          "internalType": "uint256",
          "name": "auctionId",
          "type": "uint256"
        },
        {
          "internalType": "uint256",
          "name": "amount",
          "type": "uint256"
        },
        {
          "internalType": "address",
          "name": "token",
          "type": "address"
        }
      ],
      "name": "bid",
      "outputs": [],
      "stateMutability": "payable",
      "type": "function"
    },
    {
      "inputs": [
        {
          "internalType": "address",
          "name": "nft",
          "type": "address"
        },
        {
          "internalType": "uint256",
          "name": "tokenId",
          "type": "uint256"
        },
        {
          "internalType": "uint256",
          "name": "startingPrice",
          "type": "uint256"
        },
        {
          "internalType": "uint256",
          "name": "duration",
          "type": "uint256"
        }
      ],
      "name": "createAuction",
      "outputs": [],
      "stateMutability": "nonpayable",
      "type": "function"
    },
    {
      "inputs": [
        {
          "internalType": "uint256",
          "name": "auctionId",
          "type": "uint256"
        }
      ],
      "name": "endAuction",
      "outputs": [],
      "stateMutability": "nonpayable",
      "type": "function"
    },
    {
      "inputs": [
        {
          "internalType": "address",
          "name": "token",
          "type": "address"
        }
      ],
      "name": "getChainlinkTokenPrice",
      "outputs": [
        {
          "internalType": "uint256",
          "name": "",
          "type": "uint256"
        }
      ],
      "stateMutability": "view",
      "type": "function"
    },
    {
      "inputs": [],
      "name": "initialize",
      "outputs": [],
      "stateMutability": "nonpayable",
      "type": "function"
    },
    {
      "inputs": [],
      "name": "proxiableUUID",
      "outputs": [
        {
          "internalType": "bytes32",
          "name": "",
          "type": "bytes32"
        }
      ],
      "stateMutability": "view",
      "type": "function"
    },
    {
      "inputs": [
        {
          "internalType": "address",
          "name": "token",
          "type": "address"
        },
        {
          "internalType": "address",
          "name": "feed",
          "type": "address"
        }
      ],
      "name": "setPriceFeed",
      "outputs": [],
      "stateMutability": "nonpayable",
      "type": "function"
    },
    {
      "inputs": [
        {
          "internalType": "address",
          "name": "newImplementation",
          "type": "address"
        },
        {
          "internalType": "bytes",
          "name": "data",
          "type": "bytes"
        }
      ],
      "name": "upgradeToAndCall",
      "outputs": [],
      "stateMutability": "payable",
      "type": "function"
    }
  ],
  "bytecode": "0x60a0604052306080523480156012575f5ffd5b5060805161132b6100395f395f8181610c4101528181610c6a0152610dab015261132b5ff3fe608060405260043610610084575f3560e01c8063742f0a9011610057578063742f0a901461010257806376e11286146101155780638129fc1c14610134578063ad3cb1cc14610148578063b9a2de3a14610185575f5ffd5b8063403bddb8146100885780634f1ef286146100ba57806352d1902d146100cf57806361beb1d7146100e3575b5f5ffd5b348015610093575f5ffd5b506100a76100a2366004610fd5565b6101a4565b6040519081526020015b60405180910390f35b6100cd6100c836600461100b565b610270565b005b3480156100da575f5ffd5b506100a7610286565b3480156100ee575f5ffd5b506100cd6100fd3660046110d1565b6102a1565b6100cd610110366004611109565b61056c565b348015610120575f5ffd5b506100cd61012f36600461113f565b610850565b34801561013f575f5ffd5b506100cd6108c4565b348015610153575f5ffd5b50610178604051806040016040528060058152602001640352e302e360dc1b81525081565b6040516100b19190611176565b348015610190575f5ffd5b506100cd61019f3660046111ab565b6109c9565b6001600160a01b038082165f90815260026020526040812054909116806101de57604051637e68a04560e01b815260040160405180910390fd5b5f8190505f816001600160a01b031663feaf968c6040518163ffffffff1660e01b815260040160a060405180830381865afa15801561021f573d5f5f3e3d5ffd5b505050506040513d601f19601f8201168201806040525081019061024391906111e0565b5050509150505f81136102685760405162bfc92160e01b815260040160405180910390fd5b949350505050565b610278610c36565b6102828282610cdf565b5050565b5f61028f610da0565b505f5160206112d65f395f51905f5290565b6040516331a9108f60e11b81526004810184905233906001600160a01b03861690636352211e90602401602060405180830381865afa1580156102e6573d5f5f3e3d5ffd5b505050506040513d601f19601f8201168201806040525081019061030a919061122e565b6001600160a01b031614610331576040516330cd747160e01b815260040160405180910390fd5b5f82116103935760405162461bcd60e51b815260206004820152602560248201527f5374617274696e67207072696365206d75737420626520677265617465722074604482015264068616e20360dc1b60648201526084015b60405180910390fd5b5f81116103e25760405162461bcd60e51b815260206004820152601f60248201527f4475726174696f6e206d7573742062652067726561746572207468616e203000604482015260640161038a565b6040516323b872dd60e01b8152336004820152306024820152604481018490526001600160a01b038516906323b872dd906064015f604051808303815f87803b15801561042d575f5ffd5b505af115801561043f573d5f5f3e3d5ffd5b505060408051610160810182526001600160a01b038089168252602080830189815233848601908152606085018a8152426080870190815260a087018b81525f60c0890181815260e08a01828152610100808c018481526101208d018581526101408e018681528654875260039c8d90529e86209d518e54908e166001600160a01b0319918216178f559a5160018f0155985160028e018054918e16918c169190911790559651998c0199909955935160048b0155915160058a0155905160068901805493518916909702610100600160a81b0319911515919091166001600160a81b0319909316929092179190911790945551600786015551600885018054919094169116179091559151600990910155805492509050806105618361125d565b919050555050505050565b5f838152600360205260409020600681015460ff161580156105a057508060050154816004015461059d9190611275565b42105b6105e45760405162461bcd60e51b8152602060048201526015602482015274185d58dd1a5bdb88185b1c9958591e48195b991959605a1b604482015260640161038a565b8060030154831161062f5760405162461bcd60e51b81526020600482015260156024820152741b9bdd08195b9bdd59da08189a5908185b5bdd5b9d605a1b604482015260640161038a565b826001600160a01b0383166106415750345b5f61064b846101a4565b90505f6106588284611288565b9050836009015481116106a55760405162461bcd60e51b81526020600482015260156024820152741b9bdd08195b9bdd59da08189a5908185b5bdd5b9d605a1b604482015260640161038a565b600684015461010090046001600160a01b0316156108035760088401546001600160a01b031661077657600684015460078501546040515f9261010090046001600160a01b031691908381818185875af1925050503d805f8114610724576040519150601f19603f3d011682016040523d82523d5f602084013e610729565b606091505b50509050806107705760405162461bcd60e51b8152602060048201526013602482015272115512081d1c985b9cd9995c8819985a5b1959606a1b604482015260640161038a565b50610803565b6008840154600685015460078601546040516323b872dd60e01b81523060048201526001600160a01b036101009093048316602482015260448101919091529116906323b872dd906064016020604051808303815f875af11580156107dd573d5f5f3e3d5ffd5b505050506040513d601f19601f82011682018060405250810190610801919061129f565b505b600684018054610100600160a81b03191633610100021790556008840180546001600160a01b0319166001600160a01b039690961695909517909455506009820192909255600701555050565b6001546001600160a01b031633146108975760405162461bcd60e51b815260206004820152600a60248201526927b7363c9030b236b4b760b11b604482015260640161038a565b6001600160a01b039182165f90815260026020526040902080546001600160a01b03191691909216179055565b5f6108cd610de9565b805490915060ff600160401b820416159067ffffffffffffffff165f811580156108f45750825b90505f8267ffffffffffffffff1660011480156109105750303b155b90508115801561091e575080155b1561093c5760405163f92ee8a960e01b815260040160405180910390fd5b845467ffffffffffffffff19166001178555831561096657845460ff60401b1916600160401b1785555b60015f81905580546001600160a01b0319163317905583156109c257845460ff60401b19168555604051600181527fc7f505b2f371ae2175ee4913f4499e1f2633a7b5936321eed1cdaeb6115181d29060200160405180910390a15b5050505050565b5f818152600360205260409020600681015460ff1615610a235760405162461bcd60e51b8152602060048201526015602482015274185d58dd1a5bdb88185b1c9958591e48195b991959605a1b604482015260640161038a565b600681015461010090046001600160a01b0316610a765760405162461bcd60e51b81526020600482015260116024820152703737903434b3b432b9ba103134b23232b960791b604482015260640161038a565b5f816009015411610abe5760405162461bcd60e51b81526020600482015260126024820152711b9bc81a1a59da195cdd08189a59081d5cd960721b604482015260640161038a565b5f816007015411610b115760405162461bcd60e51b815260206004820152601a60248201527f6e6f20686967686573742062696420746f6b656e20636f756e74000000000000604482015260640161038a565b60068101805460ff19166001179055600281015460078201546040515f926001600160a01b031691908381818185875af1925050503d805f8114610b70576040519150601f19603f3d011682016040523d82523d5f602084013e610b75565b606091505b5050905080610bbc5760405162461bcd60e51b8152602060048201526013602482015272115512081d1c985b9cd9995c8819985a5b1959606a1b604482015260640161038a565b8154600683015460018401546040516323b872dd60e01b81523060048201526001600160a01b036101009093048316602482015260448101919091529116906323b872dd906064015f604051808303815f87803b158015610c1b575f5ffd5b505af1158015610c2d573d5f5f3e3d5ffd5b50505050505050565b306001600160a01b037f0000000000000000000000000000000000000000000000000000000000000000161480610cbc57507f00000000000000000000000000000000000000000000000000000000000000006001600160a01b0316610cb05f5160206112d65f395f51905f52546001600160a01b031690565b6001600160a01b031614155b15610cda5760405163703e46dd60e11b815260040160405180910390fd5b565b50565b816001600160a01b03166352d1902d6040518163ffffffff1660e01b8152600401602060405180830381865afa925050508015610d39575060408051601f3d908101601f19168201909252610d36918101906112be565b60015b610d6157604051634c9c8ce360e01b81526001600160a01b038316600482015260240161038a565b5f5160206112d65f395f51905f528114610d9157604051632a87526960e21b81526004810182905260240161038a565b610d9b8383610e13565b505050565b306001600160a01b037f00000000000000000000000000000000000000000000000000000000000000001614610cda5760405163703e46dd60e11b815260040160405180910390fd5b5f807ff0c57e16840df040f15088dc2f81fe391c3923bec73e23a9662efc9c229c6a005b92915050565b610e1c82610e68565b6040516001600160a01b038316907fbc7cd75a20ee27fd9adebab32041f755214dbc6bffa90cc0225b39da2e5c2d3b905f90a2805115610e6057610d9b8282610ecb565b610282610f6b565b806001600160a01b03163b5f03610e9d57604051634c9c8ce360e01b81526001600160a01b038216600482015260240161038a565b5f5160206112d65f395f51905f5280546001600160a01b0319166001600160a01b0392909216919091179055565b60605f610ed88484610f8a565b9050808015610ef957505f3d1180610ef957505f846001600160a01b03163b115b15610f0e57610f06610f9d565b915050610e0d565b8015610f3857604051639996b31560e01b81526001600160a01b038516600482015260240161038a565b3d15610f4b57610f46610fb6565b610f64565b60405163d6bda27560e01b815260040160405180910390fd5b5092915050565b3415610cda5760405163b398979f60e01b815260040160405180910390fd5b5f5f5f835160208501865af49392505050565b6040513d81523d5f602083013e3d602001810160405290565b6040513d5f823e3d81fd5b6001600160a01b0381168114610cdc575f5ffd5b5f60208284031215610fe5575f5ffd5b8135610ff081610fc1565b9392505050565b634e487b7160e01b5f52604160045260245ffd5b5f5f6040838503121561101c575f5ffd5b823561102781610fc1565b9150602083013567ffffffffffffffff811115611042575f5ffd5b8301601f81018513611052575f5ffd5b803567ffffffffffffffff81111561106c5761106c610ff7565b604051601f8201601f19908116603f0116810167ffffffffffffffff8111828210171561109b5761109b610ff7565b6040528181528282016020018710156110b2575f5ffd5b816020840160208301375f602083830101528093505050509250929050565b5f5f5f5f608085870312156110e4575f5ffd5b84356110ef81610fc1565b966020860135965060408601359560600135945092505050565b5f5f5f6060848603121561111b575f5ffd5b8335925060208401359150604084013561113481610fc1565b809150509250925092565b5f5f60408385031215611150575f5ffd5b823561115b81610fc1565b9150602083013561116b81610fc1565b809150509250929050565b602081525f82518060208401528060208501604085015e5f604082850101526040601f19601f83011684010191505092915050565b5f602082840312156111bb575f5ffd5b5035919050565b805169ffffffffffffffffffff811681146111db575f5ffd5b919050565b5f5f5f5f5f60a086880312156111f4575f5ffd5b6111fd866111c2565b60208701516040880151606089015192975090955093509150611222608087016111c2565b90509295509295909350565b5f6020828403121561123e575f5ffd5b8151610ff081610fc1565b634e487b7160e01b5f52601160045260245ffd5b5f6001820161126e5761126e611249565b5060010190565b80820180821115610e0d57610e0d611249565b8082028115828204841417610e0d57610e0d611249565b5f602082840312156112af575f5ffd5b81518015158114610ff0575f5ffd5b5f602082840312156112ce575f5ffd5b505191905056fe360894a13ba1a3210667c828492db98dca3e2076cc3735a920a3ca505d382bbca26469706673582212203d6adbf6f6a73259dc826d26f7d14da004d86827aba4dff905edf668bf17814e64736f6c634300081c0033",
  "linkReferences": {},
  "deployedLinkReferences": {},
  "immutableReferences": {
    "626": [
      {
        "length": 32,
        "start": 3137
      },
      {
        "length": 32,
        "start": 3178
      },
      {
        "length": 32,
        "start": 3499
      }
    ]
  },
  "inputSourceName": "project/contracts/NfgAuction.sol",
  "buildInfoId": "solc-0_8_28-22fbe6654d4f1d6216294da65d02381662450cf7"
}